{
  "_format": "hh-sol-artifact-1",
  "contractName": "DataStoringOrg",
  "sourceName": "contracts/DataStoringOrg.sol",
  "abi": [
    {
      "inputs": [],
      "stateMutability": "nonpayable",
      "type": "constructor"
    },
    {
      "inputs": [
        {
          "internalType": "address",
          "name": "pubkey",
          "type": "address"
        }
      ],
      "name": "FilesData",
      "outputs": [
        {
          "components": [
            {
              "internalType": "string",
              "name": "name",
              "type": "string"
            },
            {
              "internalType": "string",
              "name": "link",
              "type": "string"
            },
            {
              "internalType": "uint256",
              "name": "timestamp",
              "type": "uint256"
            },
            {
              "internalType": "address[]",
              "name": "access",
              "type": "address[]"
            }
          ],
          "internalType": "struct DataStoringOrg.File[]",
          "name": "",
          "type": "tuple[]"
        }
      ],
      "stateMutability": "view",
      "type": "function"
    },
    {
      "inputs": [
        {
          "internalType": "address",
          "name": "ownerkey",
          "type": "address"
        },
        {
          "internalType": "address",
          "name": "recipent",
          "type": "address"
        },
        {
          "internalType": "string",
          "name": "url",
          "type": "string"
        },
        {
          "internalType": "string",
          "name": "_name",
          "type": "string"
        }
      ],
      "name": "GiveAccessFiles",
      "outputs": [],
      "stateMutability": "nonpayable",
      "type": "function"
    },
    {
      "inputs": [
        {
          "internalType": "address",
          "name": "userKey",
          "type": "address"
        },
        {
          "internalType": "string",
          "name": "password",
          "type": "string"
        }
      ],
      "name": "Login",
      "outputs": [
        {
          "internalType": "bool",
          "name": "",
          "type": "bool"
        }
      ],
      "stateMutability": "view",
      "type": "function"
    },
    {
      "inputs": [
        {
          "internalType": "address",
          "name": "pubkey",
          "type": "address"
        }
      ],
      "name": "NotificationData",
      "outputs": [
        {
          "components": [
            {
              "internalType": "address",
              "name": "Message",
              "type": "address"
            },
            {
              "internalType": "string",
              "name": "link",
              "type": "string"
            },
            {
              "internalType": "string",
              "name": "name",
              "type": "string"
            },
            {
              "internalType": "uint256",
              "name": "timestamp",
              "type": "uint256"
            }
          ],
          "internalType": "struct DataStoringOrg.Notification[]",
          "name": "",
          "type": "tuple[]"
        }
      ],
      "stateMutability": "view",
      "type": "function"
    },
    {
      "inputs": [
        {
          "internalType": "address",
          "name": "ownerKey",
          "type": "address"
        },
        {
          "internalType": "address",
          "name": "recipent",
          "type": "address"
        },
        {
          "internalType": "string",
          "name": "url",
          "type": "string"
        }
      ],
      "name": "RemoveAccessForFiles",
      "outputs": [],
      "stateMutability": "nonpayable",
      "type": "function"
    },
    {
      "inputs": [
        {
          "internalType": "string",
          "name": "_Fname",
          "type": "string"
        },
        {
          "internalType": "string",
          "name": "_Lname",
          "type": "string"
        },
        {
          "internalType": "string",
          "name": "pw",
          "type": "string"
        },
        {
          "internalType": "string",
          "name": "_gmail",
          "type": "string"
        },
        {
          "internalType": "address",
          "name": "Pubkey",
          "type": "address"
        }
      ],
      "name": "Signup",
      "outputs": [],
      "stateMutability": "payable",
      "type": "function"
    },
    {
      "inputs": [
        {
          "internalType": "string",
          "name": "_name",
          "type": "string"
        },
        {
          "internalType": "string",
          "name": "url",
          "type": "string"
        },
        {
          "internalType": "address",
          "name": "pubkey",
          "type": "address"
        }
      ],
      "name": "UploadFiles",
      "outputs": [],
      "stateMutability": "payable",
      "type": "function"
    },
    {
      "inputs": [
        {
          "internalType": "address",
          "name": "pubkey",
          "type": "address"
        }
      ],
      "name": "checkUser",
      "outputs": [
        {
          "internalType": "bool",
          "name": "",
          "type": "bool"
        }
      ],
      "stateMutability": "view",
      "type": "function"
    },
    {
      "inputs": [
        {
          "internalType": "address",
          "name": "pubkey",
          "type": "address"
        }
      ],
      "name": "checksignup",
      "outputs": [
        {
          "internalType": "bool",
          "name": "",
          "type": "bool"
        }
      ],
      "stateMutability": "view",
      "type": "function"
    },
    {
      "inputs": [
        {
          "internalType": "string",
          "name": "url",
          "type": "string"
        },
        {
          "internalType": "address",
          "name": "pubkey",
          "type": "address"
        }
      ],
      "name": "deleteFile",
      "outputs": [],
      "stateMutability": "nonpayable",
      "type": "function"
    },
    {
      "inputs": [],
      "name": "getData",
      "outputs": [
        {
          "components": [
            {
              "internalType": "string",
              "name": "Fname",
              "type": "string"
            },
            {
              "internalType": "string",
              "name": "LName",
              "type": "string"
            },
            {
              "internalType": "string",
              "name": "gmail",
              "type": "string"
            },
            {
              "internalType": "address",
              "name": "owner",
              "type": "address"
            },
            {
              "internalType": "string",
              "name": "password",
              "type": "string"
            }
          ],
          "internalType": "struct DataStoringOrg.user[]",
          "name": "",
          "type": "tuple[]"
        }
      ],
      "stateMutability": "view",
      "type": "function"
    }
  ],
  "bytecode": "0x608060405234801561001057600080fd5b50336000806101000a81548173ffffffffffffffffffffffffffffffffffffffff021916908373ffffffffffffffffffffffffffffffffffffffff1602179055506137a3806100606000396000f3fe60806040526004361061009c5760003560e01c8063998966af11610064578063998966af1461018b578063a4b4e42b146101c8578063daae57c014610205578063dbebf99614610221578063ec18665d1461024a578063ecdef347146102735761009c565b806303b01fea146100a15780631e9d48cf146100ca5780633bc5de30146101075780634ff175b4146101325780637b24f0311461014e575b600080fd5b3480156100ad57600080fd5b506100c860048036038101906100c3919061270b565b6102b0565b005b3480156100d657600080fd5b506100f160048036038101906100ec91906127aa565b6105f5565b6040516100fe91906127f2565b60405180910390f35b34801561011357600080fd5b5061011c6106aa565b60405161012991906129e8565b60405180910390f35b61014c60048036038101906101479190612a0a565b6109a7565b005b34801561015a57600080fd5b50610175600480360381019061017091906127aa565b610bb0565b6040516101829190612cf0565b60405180910390f35b34801561019757600080fd5b506101b260048036038101906101ad91906127aa565b610e0a565b6040516101bf9190612e3e565b60405180910390f35b3480156101d457600080fd5b506101ef60048036038101906101ea9190612e60565b61102c565b6040516101fc91906127f2565b60405180910390f35b61021f600480360381019061021a9190612ebc565b6111a3565b005b34801561022d57600080fd5b5061024860048036038101906102439190612f47565b611336565b005b34801561025657600080fd5b50610271600480360381019061026c9190612fb6565b611eca565b005b34801561027f57600080fd5b5061029a600480360381019061029591906127aa565b612344565b6040516102a791906127f2565b60405180910390f35b6102b9836105f5565b6102f8576040517f08c379a00000000000000000000000000000000000000000000000000000000081526004016102ef9061306f565b60405180910390fd5b60005b600260008673ffffffffffffffffffffffffffffffffffffffff1673ffffffffffffffffffffffffffffffffffffffff168152602001908152602001600020805490508110156105ee578260405160200161035691906130cb565b60405160208183030381529060405280519060200120600260008773ffffffffffffffffffffffffffffffffffffffff1673ffffffffffffffffffffffffffffffffffffffff16815260200190815260200160002082815481106103bd576103bc6130e2565b5b90600052602060002090600402016001016040516020016103de9190613209565b60405160208183030381529060405280519060200120036105db57600260008673ffffffffffffffffffffffffffffffffffffffff1673ffffffffffffffffffffffffffffffffffffffff168152602001908152602001600020818154811061044a576104496130e2565b5b9060005260206000209060040201600301849080600181540180825580915050600190039060005260206000200160009091909190916101000a81548173ffffffffffffffffffffffffffffffffffffffff021916908373ffffffffffffffffffffffffffffffffffffffff160217905550600360008573ffffffffffffffffffffffffffffffffffffffff1673ffffffffffffffffffffffffffffffffffffffff16815260200190815260200160002060405180608001604052808773ffffffffffffffffffffffffffffffffffffffff16815260200185815260200184815260200142815250908060018154018082558091505060019003906000526020600020906004020160009091909190915060008201518160000160006101000a81548173ffffffffffffffffffffffffffffffffffffffff021916908373ffffffffffffffffffffffffffffffffffffffff16021790555060208201518160010190816105b791906133b7565b5060408201518160020190816105cd91906133b7565b506060820151816003015550505b80806105e6906134b8565b9150506102fb565b5050505050565b600080600090505b60018054905081101561069f578273ffffffffffffffffffffffffffffffffffffffff1660018281548110610635576106346130e2565b5b906000526020600020906005020160030160009054906101000a900473ffffffffffffffffffffffffffffffffffffffff1673ffffffffffffffffffffffffffffffffffffffff160361068c5760019150506106a5565b8080610697906134b8565b9150506105fd565b50600090505b919050565b60606001805480602002602001604051908101604052809291908181526020016000905b8282101561099e57838290600052602060002090600502016040518060a001604052908160008201805461070190613140565b80601f016020809104026020016040519081016040528092919081815260200182805461072d90613140565b801561077a5780601f1061074f5761010080835404028352916020019161077a565b820191906000526020600020905b81548152906001019060200180831161075d57829003601f168201915b5050505050815260200160018201805461079390613140565b80601f01602080910402602001604051908101604052809291908181526020018280546107bf90613140565b801561080c5780601f106107e15761010080835404028352916020019161080c565b820191906000526020600020905b8154815290600101906020018083116107ef57829003601f168201915b5050505050815260200160028201805461082590613140565b80601f016020809104026020016040519081016040528092919081815260200182805461085190613140565b801561089e5780601f106108735761010080835404028352916020019161089e565b820191906000526020600020905b81548152906001019060200180831161088157829003601f168201915b505050505081526020016003820160009054906101000a900473ffffffffffffffffffffffffffffffffffffffff1673ffffffffffffffffffffffffffffffffffffffff1673ffffffffffffffffffffffffffffffffffffffff16815260200160048201805461090d90613140565b80601f016020809104026020016040519081016040528092919081815260200182805461093990613140565b80156109865780601f1061095b57610100808354040283529160200191610986565b820191906000526020600020905b81548152906001019060200180831161096957829003601f168201915b505050505081525050815260200190600101906106ce565b50505050905090565b600015156109b482612344565b1515146109f6576040517f08c379a00000000000000000000000000000000000000000000000000000000081526004016109ed9061354c565b60405180910390fd5b60003411610a39576040517f08c379a0000000000000000000000000000000000000000000000000000000008152600401610a30906135b8565b60405180910390fd5b60008054906101000a900473ffffffffffffffffffffffffffffffffffffffff1673ffffffffffffffffffffffffffffffffffffffff166108fc349081150290604051600060405180830381858888f19350505050158015610a9f573d6000803e3d6000fd5b5060016040518060a001604052808781526020018681526020018481526020018373ffffffffffffffffffffffffffffffffffffffff1681526020018581525090806001815401808255809150506001900390600052602060002090600502016000909190919091506000820151816000019081610b1d91906133b7565b506020820151816001019081610b3391906133b7565b506040820151816002019081610b4991906133b7565b5060608201518160030160006101000a81548173ffffffffffffffffffffffffffffffffffffffff021916908373ffffffffffffffffffffffffffffffffffffffff1602179055506080820151816004019081610ba691906133b7565b5050505050505050565b6060600260008373ffffffffffffffffffffffffffffffffffffffff1673ffffffffffffffffffffffffffffffffffffffff168152602001908152602001600020805480602002602001604051908101604052809291908181526020016000905b82821015610dff5783829060005260206000209060040201604051806080016040529081600082018054610c4490613140565b80601f0160208091040260200160405190810160405280929190818152602001828054610c7090613140565b8015610cbd5780601f10610c9257610100808354040283529160200191610cbd565b820191906000526020600020905b815481529060010190602001808311610ca057829003601f168201915b50505050508152602001600182018054610cd690613140565b80601f0160208091040260200160405190810160405280929190818152602001828054610d0290613140565b8015610d4f5780601f10610d2457610100808354040283529160200191610d4f565b820191906000526020600020905b815481529060010190602001808311610d3257829003601f168201915b505050505081526020016002820154815260200160038201805480602002602001604051908101604052809291908181526020018280548015610de757602002820191906000526020600020905b8160009054906101000a900473ffffffffffffffffffffffffffffffffffffffff1673ffffffffffffffffffffffffffffffffffffffff1681526020019060010190808311610d9d575b50505050508152505081526020019060010190610c11565b505050509050919050565b6060600360008373ffffffffffffffffffffffffffffffffffffffff1673ffffffffffffffffffffffffffffffffffffffff168152602001908152602001600020805480602002602001604051908101604052809291908181526020016000905b8282101561102157838290600052602060002090600402016040518060800160405290816000820160009054906101000a900473ffffffffffffffffffffffffffffffffffffffff1673ffffffffffffffffffffffffffffffffffffffff1673ffffffffffffffffffffffffffffffffffffffff168152602001600182018054610ef490613140565b80601f0160208091040260200160405190810160405280929190818152602001828054610f2090613140565b8015610f6d5780601f10610f4257610100808354040283529160200191610f6d565b820191906000526020600020905b815481529060010190602001808311610f5057829003601f168201915b50505050508152602001600282018054610f8690613140565b80601f0160208091040260200160405190810160405280929190818152602001828054610fb290613140565b8015610fff5780601f10610fd457610100808354040283529160200191610fff565b820191906000526020600020905b815481529060010190602001808311610fe257829003601f168201915b5050505050815260200160038201548152505081526020019060010190610e6b565b505050509050919050565b600061103783612344565b611076576040517f08c379a000000000000000000000000000000000000000000000000000000000815260040161106d9061306f565b60405180910390fd5b60005b600180549050811015611197578373ffffffffffffffffffffffffffffffffffffffff16600182815481106110b1576110b06130e2565b5b906000526020600020906005020160030160009054906101000a900473ffffffffffffffffffffffffffffffffffffffff1673ffffffffffffffffffffffffffffffffffffffff1614801561117557508260405160200161111291906130cb565b604051602081830303815290604052805190602001206001828154811061113c5761113b6130e2565b5b906000526020600020906005020160040160405160200161115d9190613209565b60405160208183030381529060405280519060200120145b1561118457600191505061119d565b808061118f906134b8565b915050611079565b50600090505b92915050565b60008054906101000a900473ffffffffffffffffffffffffffffffffffffffff1673ffffffffffffffffffffffffffffffffffffffff166108fc349081150290604051600060405180830381858888f19350505050158015611209573d6000803e3d6000fd5b50600260008273ffffffffffffffffffffffffffffffffffffffff1673ffffffffffffffffffffffffffffffffffffffff1681526020019081526020016000206040518060800160405280858152602001848152602001428152602001600067ffffffffffffffff811115611281576112806125e0565b5b6040519080825280602002602001820160405280156112af5781602001602082028036833780820191505090505b50815250908060018154018082558091505060019003906000526020600020906004020160009091909190915060008201518160000190816112f191906133b7565b50602082015181600101908161130791906133b7565b5060408201518160020155606082015181600301908051906020019061132e9291906123f9565b505050505050565b600080600090505b600260008673ffffffffffffffffffffffffffffffffffffffff1673ffffffffffffffffffffffffffffffffffffffff168152602001908152602001600020805490508110156119cf578260405160200161139991906130cb565b60405160208183030381529060405280519060200120600260008773ffffffffffffffffffffffffffffffffffffffff1673ffffffffffffffffffffffffffffffffffffffff1681526020019081526020016000208281548110611400576113ff6130e2565b5b90600052602060002090600402016001016040516020016114219190613209565b60405160208183030381529060405280519060200120036119bc5760005b600260008773ffffffffffffffffffffffffffffffffffffffff1673ffffffffffffffffffffffffffffffffffffffff16815260200190815260200160002082815481106114905761148f6130e2565b5b90600052602060002090600402016003018054905081101561159457600260008773ffffffffffffffffffffffffffffffffffffffff1673ffffffffffffffffffffffffffffffffffffffff16815260200190815260200160002082815481106114fd576114fc6130e2565b5b906000526020600020906004020160030181815481106115205761151f6130e2565b5b9060005260206000200160009054906101000a900473ffffffffffffffffffffffffffffffffffffffff1673ffffffffffffffffffffffffffffffffffffffff168573ffffffffffffffffffffffffffffffffffffffff1603611581578092505b808061158c906134b8565b91505061143f565b5060008290505b6001600260008873ffffffffffffffffffffffffffffffffffffffff1673ffffffffffffffffffffffffffffffffffffffff16815260200190815260200160002083815481106115ee576115ed6130e2565b5b90600052602060002090600402016003018054905061160d91906135d8565b81101561178e57600260008773ffffffffffffffffffffffffffffffffffffffff1673ffffffffffffffffffffffffffffffffffffffff1681526020019081526020016000208281548110611665576116646130e2565b5b9060005260206000209060040201600301600182611683919061360c565b81548110611694576116936130e2565b5b9060005260206000200160009054906101000a900473ffffffffffffffffffffffffffffffffffffffff16600260008873ffffffffffffffffffffffffffffffffffffffff1673ffffffffffffffffffffffffffffffffffffffff16815260200190815260200160002083815481106117105761170f6130e2565b5b90600052602060002090600402016003018281548110611733576117326130e2565b5b9060005260206000200160006101000a81548173ffffffffffffffffffffffffffffffffffffffff021916908373ffffffffffffffffffffffffffffffffffffffff1602179055508080611786906134b8565b91505061159b565b50600260008673ffffffffffffffffffffffffffffffffffffffff1673ffffffffffffffffffffffffffffffffffffffff16815260200190815260200160002081815481106117e0576117df6130e2565b5b90600052602060002090600402016003016001600260008873ffffffffffffffffffffffffffffffffffffffff1673ffffffffffffffffffffffffffffffffffffffff1681526020019081526020016000208381548110611844576118436130e2565b5b90600052602060002090600402016003018054905061186391906135d8565b81548110611874576118736130e2565b5b9060005260206000200160006101000a81549073ffffffffffffffffffffffffffffffffffffffff02191690556000600260008773ffffffffffffffffffffffffffffffffffffffff1673ffffffffffffffffffffffffffffffffffffffff16815260200190815260200160002082815481106118f4576118f36130e2565b5b90600052602060002090600402016003018054905011156119b757600260008673ffffffffffffffffffffffffffffffffffffffff1673ffffffffffffffffffffffffffffffffffffffff16815260200190815260200160002081815481106119605761195f6130e2565b5b906000526020600020906004020160030180548061198157611980613640565b5b6001900381819060005260206000200160006101000a81549073ffffffffffffffffffffffffffffffffffffffff021916905590555b6119cf565b80806119c7906134b8565b91505061133e565b5060005b600360008573ffffffffffffffffffffffffffffffffffffffff1673ffffffffffffffffffffffffffffffffffffffff16815260200190815260200160002080549050811015611ec35782604051602001611a2e91906130cb565b60405160208183030381529060405280519060200120600360008673ffffffffffffffffffffffffffffffffffffffff1673ffffffffffffffffffffffffffffffffffffffff1681526020019081526020016000208281548110611a9557611a946130e2565b5b9060005260206000209060040201600101604051602001611ab69190613209565b6040516020818303038152906040528051906020012003611eb05760008190505b6001600360008773ffffffffffffffffffffffffffffffffffffffff1673ffffffffffffffffffffffffffffffffffffffff16815260200190815260200160002080549050611b2691906135d8565b811015611ca857600360008673ffffffffffffffffffffffffffffffffffffffff1673ffffffffffffffffffffffffffffffffffffffff168152602001908152602001600020600182611b79919061360c565b81548110611b8a57611b896130e2565b5b9060005260206000209060040201600360008773ffffffffffffffffffffffffffffffffffffffff1673ffffffffffffffffffffffffffffffffffffffff1681526020019081526020016000208281548110611be957611be86130e2565b5b90600052602060002090600402016000820160009054906101000a900473ffffffffffffffffffffffffffffffffffffffff168160000160006101000a81548173ffffffffffffffffffffffffffffffffffffffff021916908373ffffffffffffffffffffffffffffffffffffffff16021790555060018201816001019081611c729190613685565b5060028201816002019081611c879190613685565b50600382015481600301559050508080611ca0906134b8565b915050611ad7565b50600360008573ffffffffffffffffffffffffffffffffffffffff1673ffffffffffffffffffffffffffffffffffffffff1681526020019081526020016000206001600360008773ffffffffffffffffffffffffffffffffffffffff1673ffffffffffffffffffffffffffffffffffffffff16815260200190815260200160002080549050611d3791906135d8565b81548110611d4857611d476130e2565b5b9060005260206000209060040201600080820160006101000a81549073ffffffffffffffffffffffffffffffffffffffff0219169055600182016000611d8e9190612483565b600282016000611d9e9190612483565b600382016000905550506000600360008673ffffffffffffffffffffffffffffffffffffffff1673ffffffffffffffffffffffffffffffffffffffff168152602001908152602001600020805490501115611eab57600360008573ffffffffffffffffffffffffffffffffffffffff1673ffffffffffffffffffffffffffffffffffffffff168152602001908152602001600020805480611e4257611e41613640565b5b6001900381819060005260206000209060040201600080820160006101000a81549073ffffffffffffffffffffffffffffffffffffffff0219169055600182016000611e8e9190612483565b600282016000611e9e9190612483565b6003820160009055505090555b611ec3565b8080611ebb906134b8565b9150506119d3565b5050505050565b60005b600260008373ffffffffffffffffffffffffffffffffffffffff1673ffffffffffffffffffffffffffffffffffffffff1681526020019081526020016000208054905081101561233f5782604051602001611f2891906130cb565b60405160208183030381529060405280519060200120600260008473ffffffffffffffffffffffffffffffffffffffff1673ffffffffffffffffffffffffffffffffffffffff1681526020019081526020016000208281548110611f8f57611f8e6130e2565b5b9060005260206000209060040201600101604051602001611fb09190613209565b604051602081830303815290604052805190602001200361232c5760008190505b6001600260008573ffffffffffffffffffffffffffffffffffffffff1673ffffffffffffffffffffffffffffffffffffffff1681526020019081526020016000208054905061202091906135d8565b81101561215257600260008473ffffffffffffffffffffffffffffffffffffffff1673ffffffffffffffffffffffffffffffffffffffff168152602001908152602001600020600182612073919061360c565b81548110612084576120836130e2565b5b9060005260206000209060040201600260008573ffffffffffffffffffffffffffffffffffffffff1673ffffffffffffffffffffffffffffffffffffffff16815260200190815260200160002082815481106120e3576120e26130e2565b5b9060005260206000209060040201600082018160000190816121059190613685565b506001820181600101908161211a9190613685565b5060028201548160020155600382018160030190805461213b9291906124c3565b50905050808061214a906134b8565b915050611fd1565b50600260008373ffffffffffffffffffffffffffffffffffffffff1673ffffffffffffffffffffffffffffffffffffffff1681526020019081526020016000206001600260008573ffffffffffffffffffffffffffffffffffffffff1673ffffffffffffffffffffffffffffffffffffffff168152602001908152602001600020805490506121e191906135d8565b815481106121f2576121f16130e2565b5b9060005260206000209060040201600080820160006122119190612483565b6001820160006122219190612483565b60028201600090556003820160006122399190612515565b50506000600260008473ffffffffffffffffffffffffffffffffffffffff1673ffffffffffffffffffffffffffffffffffffffff16815260200190815260200160002080549050111561232757600260008373ffffffffffffffffffffffffffffffffffffffff1673ffffffffffffffffffffffffffffffffffffffff1681526020019081526020016000208054806122d5576122d4613640565b5b6001900381819060005260206000209060040201600080820160006122fa9190612483565b60018201600061230a9190612483565b60028201600090556003820160006123229190612515565b505090555b61233f565b8080612337906134b8565b915050611ecd565b505050565b600080600090505b6001805490508110156123ee578273ffffffffffffffffffffffffffffffffffffffff1660018281548110612384576123836130e2565b5b906000526020600020906005020160030160009054906101000a900473ffffffffffffffffffffffffffffffffffffffff1673ffffffffffffffffffffffffffffffffffffffff16036123db5760019150506123f4565b80806123e6906134b8565b91505061234c565b50600090505b919050565b828054828255906000526020600020908101928215612472579160200282015b828111156124715782518260006101000a81548173ffffffffffffffffffffffffffffffffffffffff021916908373ffffffffffffffffffffffffffffffffffffffff16021790555091602001919060010190612419565b5b50905061247f9190612536565b5090565b50805461248f90613140565b6000825580601f106124a157506124c0565b601f0160209004906000526020600020908101906124bf9190612536565b5b50565b8280548282559060005260206000209081019282156125045760005260206000209182015b828111156125035782548255916001019190600101906124e8565b5b5090506125119190612536565b5090565b50805460008255906000526020600020908101906125339190612536565b50565b5b8082111561254f576000816000905550600101612537565b5090565b6000604051905090565b600080fd5b600080fd5b600073ffffffffffffffffffffffffffffffffffffffff82169050919050565b600061259282612567565b9050919050565b6125a281612587565b81146125ad57600080fd5b50565b6000813590506125bf81612599565b92915050565b600080fd5b600080fd5b6000601f19601f8301169050919050565b7f4e487b7100000000000000000000000000000000000000000000000000000000600052604160045260246000fd5b612618826125cf565b810181811067ffffffffffffffff82111715612637576126366125e0565b5b80604052505050565b600061264a612553565b9050612656828261260f565b919050565b600067ffffffffffffffff821115612676576126756125e0565b5b61267f826125cf565b9050602081019050919050565b82818337600083830152505050565b60006126ae6126a98461265b565b612640565b9050828152602081018484840111156126ca576126c96125ca565b5b6126d584828561268c565b509392505050565b600082601f8301126126f2576126f16125c5565b5b813561270284826020860161269b565b91505092915050565b600080600080608085870312156127255761272461255d565b5b6000612733878288016125b0565b9450506020612744878288016125b0565b935050604085013567ffffffffffffffff81111561276557612764612562565b5b612771878288016126dd565b925050606085013567ffffffffffffffff81111561279257612791612562565b5b61279e878288016126dd565b91505092959194509250565b6000602082840312156127c0576127bf61255d565b5b60006127ce848285016125b0565b91505092915050565b60008115159050919050565b6127ec816127d7565b82525050565b600060208201905061280760008301846127e3565b92915050565b600081519050919050565b600082825260208201905092915050565b6000819050602082019050919050565b600081519050919050565b600082825260208201905092915050565b60005b83811015612873578082015181840152602081019050612858565b60008484015250505050565b600061288a82612839565b6128948185612844565b93506128a4818560208601612855565b6128ad816125cf565b840191505092915050565b6128c181612587565b82525050565b600060a08301600083015184820360008601526128e4828261287f565b915050602083015184820360208601526128fe828261287f565b91505060408301518482036040860152612918828261287f565b915050606083015161292d60608601826128b8565b5060808301518482036080860152612945828261287f565b9150508091505092915050565b600061295e83836128c7565b905092915050565b6000602082019050919050565b600061297e8261280d565b6129888185612818565b93508360208202850161299a85612829565b8060005b858110156129d657848403895281516129b78582612952565b94506129c283612966565b925060208a0199505060018101905061299e565b50829750879550505050505092915050565b60006020820190508181036000830152612a028184612973565b905092915050565b600080600080600060a08688031215612a2657612a2561255d565b5b600086013567ffffffffffffffff811115612a4457612a43612562565b5b612a50888289016126dd565b955050602086013567ffffffffffffffff811115612a7157612a70612562565b5b612a7d888289016126dd565b945050604086013567ffffffffffffffff811115612a9e57612a9d612562565b5b612aaa888289016126dd565b935050606086013567ffffffffffffffff811115612acb57612aca612562565b5b612ad7888289016126dd565b9250506080612ae8888289016125b0565b9150509295509295909350565b600081519050919050565b600082825260208201905092915050565b6000819050602082019050919050565b6000819050919050565b612b3481612b21565b82525050565b600081519050919050565b600082825260208201905092915050565b6000819050602082019050919050565b6000612b7283836128b8565b60208301905092915050565b6000602082019050919050565b6000612b9682612b3a565b612ba08185612b45565b9350612bab83612b56565b8060005b83811015612bdc578151612bc38882612b66565b9750612bce83612b7e565b925050600181019050612baf565b5085935050505092915050565b60006080830160008301518482036000860152612c06828261287f565b91505060208301518482036020860152612c20828261287f565b9150506040830151612c356040860182612b2b565b5060608301518482036060860152612c4d8282612b8b565b9150508091505092915050565b6000612c668383612be9565b905092915050565b6000602082019050919050565b6000612c8682612af5565b612c908185612b00565b935083602082028501612ca285612b11565b8060005b85811015612cde5784840389528151612cbf8582612c5a565b9450612cca83612c6e565b925060208a01995050600181019050612ca6565b50829750879550505050505092915050565b60006020820190508181036000830152612d0a8184612c7b565b905092915050565b600081519050919050565b600082825260208201905092915050565b6000819050602082019050919050565b6000608083016000830151612d5660008601826128b8565b5060208301518482036020860152612d6e828261287f565b91505060408301518482036040860152612d88828261287f565b9150506060830151612d9d6060860182612b2b565b508091505092915050565b6000612db48383612d3e565b905092915050565b6000602082019050919050565b6000612dd482612d12565b612dde8185612d1d565b935083602082028501612df085612d2e565b8060005b85811015612e2c5784840389528151612e0d8582612da8565b9450612e1883612dbc565b925060208a01995050600181019050612df4565b50829750879550505050505092915050565b60006020820190508181036000830152612e588184612dc9565b905092915050565b60008060408385031215612e7757612e7661255d565b5b6000612e85858286016125b0565b925050602083013567ffffffffffffffff811115612ea657612ea5612562565b5b612eb2858286016126dd565b9150509250929050565b600080600060608486031215612ed557612ed461255d565b5b600084013567ffffffffffffffff811115612ef357612ef2612562565b5b612eff868287016126dd565b935050602084013567ffffffffffffffff811115612f2057612f1f612562565b5b612f2c868287016126dd565b9250506040612f3d868287016125b0565b9150509250925092565b600080600060608486031215612f6057612f5f61255d565b5b6000612f6e868287016125b0565b9350506020612f7f868287016125b0565b925050604084013567ffffffffffffffff811115612fa057612f9f612562565b5b612fac868287016126dd565b9150509250925092565b60008060408385031215612fcd57612fcc61255d565b5b600083013567ffffffffffffffff811115612feb57612fea612562565b5b612ff7858286016126dd565b9250506020613008858286016125b0565b9150509250929050565b600082825260208201905092915050565b7f55736572204e6f7420466f756e64000000000000000000000000000000000000600082015250565b6000613059600e83613012565b915061306482613023565b602082019050919050565b600060208201905081810360008301526130888161304c565b9050919050565b600081905092915050565b60006130a582612839565b6130af818561308f565b93506130bf818560208601612855565b80840191505092915050565b60006130d7828461309a565b915081905092915050565b7f4e487b7100000000000000000000000000000000000000000000000000000000600052603260045260246000fd5b7f4e487b7100000000000000000000000000000000000000000000000000000000600052602260045260246000fd5b6000600282049050600182168061315857607f821691505b60208210810361316b5761316a613111565b5b50919050565b60008190508160005260206000209050919050565b6000815461319381613140565b61319d818661308f565b945060018216600081146131b857600181146131cd57613200565b60ff1983168652811515820286019350613200565b6131d685613171565b60005b838110156131f8578154818901526001820191506020810190506131d9565b838801955050505b50505092915050565b60006132158284613186565b915081905092915050565b60006020601f8301049050919050565b600082821b905092915050565b60006008830261326d7fffffffffffffffffffffffffffffffffffffffffffffffffffffffffffffffff82613230565b6132778683613230565b95508019841693508086168417925050509392505050565b6000819050919050565b60006132b46132af6132aa84612b21565b61328f565b612b21565b9050919050565b6000819050919050565b6132ce83613299565b6132e26132da826132bb565b84845461323d565b825550505050565b600090565b6132f76132ea565b6133028184846132c5565b505050565b5b818110156133265761331b6000826132ef565b600181019050613308565b5050565b601f82111561336b5761333c81613171565b61334584613220565b81016020851015613354578190505b61336861336085613220565b830182613307565b50505b505050565b600082821c905092915050565b600061338e60001984600802613370565b1980831691505092915050565b60006133a7838361337d565b9150826002028217905092915050565b6133c082612839565b67ffffffffffffffff8111156133d9576133d86125e0565b5b6133e38254613140565b6133ee82828561332a565b600060209050601f831160018114613421576000841561340f578287015190505b613419858261339b565b865550613481565b601f19841661342f86613171565b60005b8281101561345757848901518255600182019150602085019450602081019050613432565b868310156134745784890151613470601f89168261337d565b8355505b6001600288020188555050505b505050505050565b7f4e487b7100000000000000000000000000000000000000000000000000000000600052601160045260246000fd5b60006134c382612b21565b91507fffffffffffffffffffffffffffffffffffffffffffffffffffffffffffffffff82036134f5576134f4613489565b5b600182019050919050565b7f596f75206861766520616c6c7265616479207369676e75700000000000000000600082015250565b6000613536601883613012565b915061354182613500565b602082019050919050565b6000602082019050818103600083015261356581613529565b9050919050565b7f596f7520686176652070617920303e0000000000000000000000000000000000600082015250565b60006135a2600f83613012565b91506135ad8261356c565b602082019050919050565b600060208201905081810360008301526135d181613595565b9050919050565b60006135e382612b21565b91506135ee83612b21565b925082820390508181111561360657613605613489565b5b92915050565b600061361782612b21565b915061362283612b21565b925082820190508082111561363a57613639613489565b5b92915050565b7f4e487b7100000000000000000000000000000000000000000000000000000000600052603160045260246000fd5b60008154905061367e81613140565b9050919050565b81810361369357505061376b565b61369c8261366f565b67ffffffffffffffff8111156136b5576136b46125e0565b5b6136bf8254613140565b6136ca82828561332a565b6000601f8311600181146136f957600084156136e7578287015490505b6136f1858261339b565b865550613764565b601f19841661370787613171565b965061371286613171565b60005b8281101561373a57848901548255600182019150600185019450602081019050613715565b868310156137575784890154613753601f89168261337d565b8355505b6001600288020188555050505b5050505050505b56fea2646970667358221220ced0af61aaa24ebbd4f768705f0b4d7925c03bed11f5f0553199f673b27fef3864736f6c63430008110033",
  "linkReferences": {},
  "deployedLinkReferences": {}
}